{
  "_format": "hh-sol-artifact-1",
  "contractName": "ContactPortal",
  "sourceName": "contracts/ContactPortal.sol",
  "abi": [
    {
      "inputs": [],
      "stateMutability": "payable",
      "type": "constructor"
    },
    {
      "anonymous": false,
      "inputs": [
        {
          "indexed": true,
          "internalType": "address",
          "name": "from",
          "type": "address"
        },
        {
          "indexed": false,
          "internalType": "uint256",
          "name": "timestamp",
          "type": "uint256"
        },
        {
          "indexed": false,
          "internalType": "string",
          "name": "message",
          "type": "string"
        }
      ],
      "name": "new_contact",
      "type": "event"
    },
    {
      "inputs": [
        {
          "internalType": "string",
          "name": "_message",
          "type": "string"
        }
      ],
      "name": "contact",
      "outputs": [],
      "stateMutability": "nonpayable",
      "type": "function"
    },
    {
      "inputs": [],
      "name": "getAllContacts",
      "outputs": [
        {
          "components": [
            {
              "internalType": "address",
              "name": "new_contact",
              "type": "address"
            },
            {
              "internalType": "string",
              "name": "message",
              "type": "string"
            },
            {
              "internalType": "uint256",
              "name": "timestamp",
              "type": "uint256"
            }
          ],
          "internalType": "struct ContactPortal.Contact[]",
          "name": "",
          "type": "tuple[]"
        }
      ],
      "stateMutability": "view",
      "type": "function"
    },
    {
      "inputs": [],
      "name": "getTotalContacts",
      "outputs": [
        {
          "internalType": "uint256",
          "name": "",
          "type": "uint256"
        }
      ],
      "stateMutability": "view",
      "type": "function"
    },
    {
      "inputs": [
        {
          "internalType": "address",
          "name": "",
          "type": "address"
        }
      ],
      "name": "lastContacted",
      "outputs": [
        {
          "internalType": "uint256",
          "name": "",
          "type": "uint256"
        }
      ],
      "stateMutability": "view",
      "type": "function"
    }
  ],
  "bytecode": "0x60806040526200004f6040518060400160405280601981526020017f4e657720436f6e747261637420436f6e737472756374656421000000000000008152506200007760201b620006aa1760201c565b606444426200005f9190620001c4565b6200006b919062000261565b60018190555062000308565b62000117816040516024016200008e919062000184565b6040516020818303038152906040527f41304fac000000000000000000000000000000000000000000000000000000007bffffffffffffffffffffffffffffffffffffffffffffffffffffffff19166020820180517bffffffffffffffffffffffffffffffffffffffffffffffffffffffff83818316178352505050506200011a60201b60201c565b50565b60008151905060006a636f6e736f6c652e6c6f679050602083016000808483855afa5050505050565b60006200015082620001a8565b6200015c8185620001b3565b93506200016e8185602086016200022b565b6200017981620002f7565b840191505092915050565b60006020820190508181036000830152620001a0818462000143565b905092915050565b600081519050919050565b600082825260208201905092915050565b6000620001d18262000221565b9150620001de8362000221565b9250827fffffffffffffffffffffffffffffffffffffffffffffffffffffffffffffffff0382111562000216576200021562000299565b5b828201905092915050565b6000819050919050565b60005b838110156200024b5780820151818401526020810190506200022e565b838111156200025b576000848401525b50505050565b60006200026e8262000221565b91506200027b8362000221565b9250826200028e576200028d620002c8565b5b828206905092915050565b7f4e487b7100000000000000000000000000000000000000000000000000000000600052601160045260246000fd5b7f4e487b7100000000000000000000000000000000000000000000000000000000600052601260045260246000fd5b6000601f19601f8301169050919050565b6112e180620003186000396000f3fe608060405234801561001057600080fd5b506004361061004c5760003560e01c8063591ca0fb14610051578063d6420a901461006d578063ef1d6ddd1461008b578063f4c8f903146100a9575b600080fd5b61006b60048036038101906100669190610a89565b6100d9565b005b6100756104f6565b6040516100829190610e2d565b60405180910390f35b610093610541565b6040516100a09190610cf2565b60405180910390f35b6100c360048036038101906100be9190610a60565b610692565b6040516100d09190610e2d565b60405180910390f35b426014600360003373ffffffffffffffffffffffffffffffffffffffff1673ffffffffffffffffffffffffffffffffffffffff168152602001908152602001600020546101269190610f3f565b10610166576040517f08c379a000000000000000000000000000000000000000000000000000000000815260040161015d90610e0d565b60405180910390fd5b42600360003373ffffffffffffffffffffffffffffffffffffffff1673ffffffffffffffffffffffffffffffffffffffff1681526020019081526020016000208190555060016000808282546101bc9190610f3f565b925050819055506101e560405180606001604052806030815260200161127c6030913933610743565b600260405180606001604052803373ffffffffffffffffffffffffffffffffffffffff16815260200183815260200142815250908060018154018082558091505060019003906000526020600020906003020160009091909190915060008201518160000160006101000a81548173ffffffffffffffffffffffffffffffffffffffff021916908373ffffffffffffffffffffffffffffffffffffffff16021790555060208201518160010190805190602001906102a4929190610940565b50604082015181600201555050606460015442446102c29190610f3f565b6102cc9190610f3f565b6102d69190611076565b60018190555061031b6040518060400160405280601181526020017f4d6573736167652052656365697665643a000000000000000000000000000000815250826107df565b61035c6040518060400160405280601381526020017f52616e646f6d20232067656e6572617465643a0000000000000000000000000081525060015461087b565b6032600154116104a3576103a56040518060400160405280600781526020017f257320776f6e210000000000000000000000000000000000000000000000000081525033610743565b600066038d7ea4c680009050478111156103f4576040517f08c379a00000000000000000000000000000000000000000000000000000000081526004016103eb90610ded565b60405180910390fd5b60003373ffffffffffffffffffffffffffffffffffffffff168260405161041a90610cdd565b60006040518083038185875af1925050503d8060008114610457576040519150601f19603f3d011682016040523d82523d6000602084013e61045c565b606091505b50509050806104a0576040517f08c379a000000000000000000000000000000000000000000000000000000000815260040161049790610dcd565b60405180910390fd5b50505b3373ffffffffffffffffffffffffffffffffffffffff167f811a6a4369badf17525ac3671d52870f18c7f3f7cb8577669bd7f3bba0bc047a42836040516104eb929190610e48565b60405180910390a250565b60006105396040518060400160405280601981526020017f5765206861766520256420746f74616c20636f6e74616374730000000000000081525060005461087b565b600054905090565b60606002805480602002602001604051908101604052809291908181526020016000905b8282101561068957838290600052602060002090600302016040518060600160405290816000820160009054906101000a900473ffffffffffffffffffffffffffffffffffffffff1673ffffffffffffffffffffffffffffffffffffffff1673ffffffffffffffffffffffffffffffffffffffff1681526020016001820180546105ee90611013565b80601f016020809104026020016040519081016040528092919081815260200182805461061a90611013565b80156106675780601f1061063c57610100808354040283529160200191610667565b820191906000526020600020905b81548152906001019060200180831161064a57829003601f168201915b5050505050815260200160028201548152505081526020019060010190610565565b50505050905090565b60036020528060005260406000206000915090505481565b610740816040516024016106be9190610d14565b6040516020818303038152906040527f41304fac000000000000000000000000000000000000000000000000000000007bffffffffffffffffffffffffffffffffffffffffffffffffffffffff19166020820180517bffffffffffffffffffffffffffffffffffffffffffffffffffffffff8381831617835250505050610917565b50565b6107db8282604051602401610759929190610d36565b6040516020818303038152906040527f319af333000000000000000000000000000000000000000000000000000000007bffffffffffffffffffffffffffffffffffffffffffffffffffffffff19166020820180517bffffffffffffffffffffffffffffffffffffffffffffffffffffffff8381831617835250505050610917565b5050565b61087782826040516024016107f5929190610d66565b6040516020818303038152906040527f4b5c4277000000000000000000000000000000000000000000000000000000007bffffffffffffffffffffffffffffffffffffffffffffffffffffffff19166020820180517bffffffffffffffffffffffffffffffffffffffffffffffffffffffff8381831617835250505050610917565b5050565b6109138282604051602401610891929190610d9d565b6040516020818303038152906040527f9710a9d0000000000000000000000000000000000000000000000000000000007bffffffffffffffffffffffffffffffffffffffffffffffffffffffff19166020820180517bffffffffffffffffffffffffffffffffffffffffffffffffffffffff8381831617835250505050610917565b5050565b60008151905060006a636f6e736f6c652e6c6f679050602083016000808483855afa5050505050565b82805461094c90611013565b90600052602060002090601f01602090048101928261096e57600085556109b5565b82601f1061098757805160ff19168380011785556109b5565b828001600101855582156109b5579182015b828111156109b4578251825591602001919060010190610999565b5b5090506109c291906109c6565b5090565b5b808211156109df5760008160009055506001016109c7565b5090565b60006109f66109f184610e9d565b610e78565b905082815260208101848484011115610a0e57600080fd5b610a19848285610fd1565b509392505050565b600081359050610a3081611264565b92915050565b600082601f830112610a4757600080fd5b8135610a578482602086016109e3565b91505092915050565b600060208284031215610a7257600080fd5b6000610a8084828501610a21565b91505092915050565b600060208284031215610a9b57600080fd5b600082013567ffffffffffffffff811115610ab557600080fd5b610ac184828501610a36565b91505092915050565b6000610ad68383610c6f565b905092915050565b610ae781610f95565b82525050565b610af681610f95565b82525050565b6000610b0782610ede565b610b118185610f01565b935083602082028501610b2385610ece565b8060005b85811015610b5f5784840389528151610b408582610aca565b9450610b4b83610ef4565b925060208a01995050600181019050610b27565b50829750879550505050505092915050565b6000610b7c82610ee9565b610b868185610f1d565b9350610b96818560208601610fe0565b610b9f81611163565b840191505092915050565b6000610bb582610ee9565b610bbf8185610f2e565b9350610bcf818560208601610fe0565b610bd881611163565b840191505092915050565b6000610bf0602783610f2e565b9150610bfb82611174565b604082019050919050565b6000610c13603483610f2e565b9150610c1e826111c3565b604082019050919050565b6000610c36602983610f2e565b9150610c4182611212565b604082019050919050565b6000610c59600083610f12565b9150610c6482611261565b600082019050919050565b6000606083016000830151610c876000860182610ade565b5060208301518482036020860152610c9f8282610b71565b9150506040830151610cb46040860182610cbf565b508091505092915050565b610cc881610fc7565b82525050565b610cd781610fc7565b82525050565b6000610ce882610c4c565b9150819050919050565b60006020820190508181036000830152610d0c8184610afc565b905092915050565b60006020820190508181036000830152610d2e8184610baa565b905092915050565b60006040820190508181036000830152610d508185610baa565b9050610d5f6020830184610aed565b9392505050565b60006040820190508181036000830152610d808185610baa565b90508181036020830152610d948184610baa565b90509392505050565b60006040820190508181036000830152610db78185610baa565b9050610dc66020830184610cce565b9392505050565b60006020820190508181036000830152610de681610be3565b9050919050565b60006020820190508181036000830152610e0681610c06565b9050919050565b60006020820190508181036000830152610e2681610c29565b9050919050565b6000602082019050610e426000830184610cce565b92915050565b6000604082019050610e5d6000830185610cce565b8181036020830152610e6f8184610baa565b90509392505050565b6000610e82610e93565b9050610e8e8282611045565b919050565b6000604051905090565b600067ffffffffffffffff821115610eb857610eb7611134565b5b610ec182611163565b9050602081019050919050565b6000819050602082019050919050565b600081519050919050565b600081519050919050565b6000602082019050919050565b600082825260208201905092915050565b600081905092915050565b600082825260208201905092915050565b600082825260208201905092915050565b6000610f4a82610fc7565b9150610f5583610fc7565b9250827fffffffffffffffffffffffffffffffffffffffffffffffffffffffffffffffff03821115610f8a57610f896110a7565b5b828201905092915050565b6000610fa082610fa7565b9050919050565b600073ffffffffffffffffffffffffffffffffffffffff82169050919050565b6000819050919050565b82818337600083830152505050565b60005b83811015610ffe578082015181840152602081019050610fe3565b8381111561100d576000848401525b50505050565b6000600282049050600182168061102b57607f821691505b6020821081141561103f5761103e611105565b5b50919050565b61104e82611163565b810181811067ffffffffffffffff8211171561106d5761106c611134565b5b80604052505050565b600061108182610fc7565b915061108c83610fc7565b92508261109c5761109b6110d6565b5b828206905092915050565b7f4e487b7100000000000000000000000000000000000000000000000000000000600052601160045260246000fd5b7f4e487b7100000000000000000000000000000000000000000000000000000000600052601260045260246000fd5b7f4e487b7100000000000000000000000000000000000000000000000000000000600052602260045260246000fd5b7f4e487b7100000000000000000000000000000000000000000000000000000000600052604160045260246000fd5b6000601f19601f8301169050919050565b7f4661696c656420746f207769746864726177206d6f6e65792066726f6d20636f60008201527f6e74726163742e00000000000000000000000000000000000000000000000000602082015250565b7f417474656d7074656420746f207769746864726177206d6f7265207468616e2060008201527f62616c616e6365206f6620636f6e74726163742e000000000000000000000000602082015250565b7f4d7573742077616974203230207365636f6e6473206265666f7265207761766960008201527f6e6720616761696e2e0000000000000000000000000000000000000000000000602082015250565b50565b61126d81610f95565b811461127857600080fd5b5056fe257320697320636f6e7461637465642120436f6e7461637420616464656420746f20636f6e7461637473206c69737421a264697066735822122095ff22628806d15d1fc3a21b3d9c9ee8ccf0aaa8258c22c655f9527ff5627efb64736f6c63430008040033",
  "linkReferences": {},
  "deployedLinkReferences": {}
}